{
  "_format": "hh-sol-artifact-1",
  "contractName": "Plan",
  "sourceName": "contracts/Plan.sol",
  "abi": [
    {
      "inputs": [
        {
          "internalType": "address",
          "name": "userAddr",
          "type": "address"
        }
      ],
      "name": "_IsUserHasPlan",
      "outputs": [
        {
          "internalType": "bool",
          "name": "",
          "type": "bool"
        }
      ],
      "stateMutability": "view",
      "type": "function"
    },
    {
      "inputs": [
        {
          "internalType": "string",
          "name": "name",
          "type": "string"
        },
        {
          "internalType": "string",
          "name": "image",
          "type": "string"
        },
        {
          "internalType": "string",
          "name": "price",
          "type": "string"
        },
        {
          "internalType": "uint256",
          "name": "value",
          "type": "uint256"
        },
        {
          "internalType": "uint256",
          "name": "durationDays",
          "type": "uint256"
        },
        {
          "internalType": "string",
          "name": "ipfsHash",
          "type": "string"
        },
        {
          "internalType": "uint256",
          "name": "createdAt",
          "type": "uint256"
        },
        {
          "internalType": "bool",
          "name": "inUse",
          "type": "bool"
        }
      ],
      "name": "createPlan",
      "outputs": [],
      "stateMutability": "nonpayable",
      "type": "function"
    },
    {
      "inputs": [],
      "name": "getAllPlans",
      "outputs": [
        {
          "components": [
            {
              "internalType": "uint256",
              "name": "planNumber",
              "type": "uint256"
            },
            {
              "internalType": "string",
              "name": "name",
              "type": "string"
            },
            {
              "internalType": "string",
              "name": "image",
              "type": "string"
            },
            {
              "internalType": "string",
              "name": "price",
              "type": "string"
            },
            {
              "internalType": "uint256",
              "name": "value",
              "type": "uint256"
            },
            {
              "internalType": "uint256",
              "name": "durationDays",
              "type": "uint256"
            },
            {
              "internalType": "string",
              "name": "ipfsHash",
              "type": "string"
            },
            {
              "internalType": "address",
              "name": "ownerAddress",
              "type": "address"
            },
            {
              "internalType": "uint256",
              "name": "createdAt",
              "type": "uint256"
            },
            {
              "internalType": "bool",
              "name": "inUse",
              "type": "bool"
            }
          ],
          "internalType": "struct Plan.PlanDetails[]",
          "name": "",
          "type": "tuple[]"
        }
      ],
      "stateMutability": "view",
      "type": "function"
    },
    {
      "inputs": [
        {
          "internalType": "address",
          "name": "userAddr",
          "type": "address"
        }
      ],
      "name": "getAllUserPlans",
      "outputs": [
        {
          "components": [
            {
              "internalType": "uint256",
              "name": "planNumber",
              "type": "uint256"
            },
            {
              "internalType": "string",
              "name": "name",
              "type": "string"
            },
            {
              "internalType": "string",
              "name": "image",
              "type": "string"
            },
            {
              "internalType": "string",
              "name": "price",
              "type": "string"
            },
            {
              "internalType": "uint256",
              "name": "value",
              "type": "uint256"
            },
            {
              "internalType": "uint256",
              "name": "durationDays",
              "type": "uint256"
            },
            {
              "internalType": "string",
              "name": "ipfsHash",
              "type": "string"
            },
            {
              "internalType": "address",
              "name": "ownerAddress",
              "type": "address"
            },
            {
              "internalType": "uint256",
              "name": "createdAt",
              "type": "uint256"
            },
            {
              "internalType": "bool",
              "name": "inUse",
              "type": "bool"
            }
          ],
          "internalType": "struct Plan.PlanDetails[]",
          "name": "",
          "type": "tuple[]"
        }
      ],
      "stateMutability": "view",
      "type": "function"
    },
    {
      "inputs": [
        {
          "internalType": "uint256",
          "name": "planNum",
          "type": "uint256"
        }
      ],
      "name": "getPlanByNumber",
      "outputs": [
        {
          "components": [
            {
              "internalType": "uint256",
              "name": "planNumber",
              "type": "uint256"
            },
            {
              "internalType": "string",
              "name": "name",
              "type": "string"
            },
            {
              "internalType": "string",
              "name": "image",
              "type": "string"
            },
            {
              "internalType": "string",
              "name": "price",
              "type": "string"
            },
            {
              "internalType": "uint256",
              "name": "value",
              "type": "uint256"
            },
            {
              "internalType": "uint256",
              "name": "durationDays",
              "type": "uint256"
            },
            {
              "internalType": "string",
              "name": "ipfsHash",
              "type": "string"
            },
            {
              "internalType": "address",
              "name": "ownerAddress",
              "type": "address"
            },
            {
              "internalType": "uint256",
              "name": "createdAt",
              "type": "uint256"
            },
            {
              "internalType": "bool",
              "name": "inUse",
              "type": "bool"
            }
          ],
          "internalType": "struct Plan.PlanDetails",
          "name": "",
          "type": "tuple"
        }
      ],
      "stateMutability": "view",
      "type": "function"
    }
  ],
  "bytecode": "0x6080604052600160005534801561001557600080fd5b506119a0806100256000396000f3fe608060405234801561001057600080fd5b50600436106100575760003560e01c80633586d9271461005c5780633c4b8f471461009d57806398de396a146100b2578063ab501c6c146100c7578063d1beee22146100da575b600080fd5b61008861006a36600461135d565b6001600160a01b031660009081526004602052604090205460ff1690565b60405190151581526020015b60405180910390f35b6100b06100ab366004611445565b6100fa565b005b6100ba610690565b6040516100949190611626565b6100ba6100d536600461135d565b6109f8565b6100ed6100e8366004611688565b610dd7565b60405161009491906116a1565b610102611124565b3360009081526004602052604090205460ff168015156001036102ea5761015e6040518060400160405280601881526020017f416464696e6720746f206d6f726520706c616e733a2025730000000000000000815250826110ae565b600060036000336001600160a01b03166001600160a01b03168152602001908152602001600020905060405180610140016040528060005481526020018c81526020018b81526020018a8152602001898152602001888152602001878152602001336001600160a01b031681526020018681526020018515158152509250808390806001815401808255809150506001900390600052602060002090600a02016000909190919091506000820151816000015560208201518160010190816102269190611737565b506040820151600282019061023b9082611737565b50606082015160038201906102509082611737565b506080820151600482015560a0820151600582015560c082015160068201906102799082611737565b5060e08201516007820180546001600160a01b0319166001600160a01b039092169190911790556101008201516008820155610120909101516009909101805460ff191691151591909117905533600090815260036020526040902081546102e391908390611182565b5050610545565b6103296040518060400160405280602081526020017f4372656174696e672061206e657720706c616e20666f7220757365723a202573815250826110ae565b6040805161014081018252600080548252602082018d81529282018c9052606082018b9052608082018a905260a0820189905260c082018890523360e083015261010082018790528515156101208301526002805460018101825591528151600a9091027f405787fa12a823e0f2b7631cc41b3ba8828b3321ca811111fa75cd3aa3bb5ace81019182559251919450849290917f405787fa12a823e0f2b7631cc41b3ba8828b3321ca811111fa75cd3aa3bb5acf909101906103eb9082611737565b50604082015160028201906104009082611737565b50606082015160038201906104159082611737565b506080820151600482015560a0820151600582015560c0820151600682019061043e9082611737565b5060e08201516007820180546001600160a01b0319166001600160a01b039092169190911790556101008201516008820155610120909101516009909101805460ff1916911515919091179055336000908152600360205260409020600280546104a9929190611182565b5060028054806104bb576104bb6117f7565b600082815260208120600a60001990930192830201818155906104e1600183018261128a565b6104ef60028301600061128a565b6104fd60038301600061128a565b6004820160009055600582016000905560068201600061051d919061128a565b506007810180546001600160a01b031916905560006008820155600901805460ff1916905590555b6001805480820182556000919091528251600a9091027fb10e2d527612073b26eecdfd717e6a320cf44b4afac2b0732d9fcbe2b7fa0cf6810191825560208401518492917fb10e2d527612073b26eecdfd717e6a320cf44b4afac2b0732d9fcbe2b7fa0cf701906105b69082611737565b50604082015160028201906105cb9082611737565b50606082015160038201906105e09082611737565b506080820151600482015560a0820151600582015560c082015160068201906106099082611737565b5060e08201516007820180546001600160a01b0319166001600160a01b039092169190911790556101008201516008820155610120909101516009909101805460ff191691151591909117905560008054908061066583611823565b9091555050336000908152600460205260409020805460ff1916600117905550505050505050505050565b60015460609060009067ffffffffffffffff8111156106b1576106b161138d565b6040519080825280602002602001820160405280156106ea57816020015b6106d7611124565b8152602001906001900390816106cf5790505b50905060005b6001548110156109f25760006001828154811061070f5761070f61183c565b90600052602060002090600a02019050806040518061014001604052908160008201548152602001600182018054610746906116b4565b80601f0160208091040260200160405190810160405280929190818152602001828054610772906116b4565b80156107bf5780601f10610794576101008083540402835291602001916107bf565b820191906000526020600020905b8154815290600101906020018083116107a257829003601f168201915b505050505081526020016002820180546107d8906116b4565b80601f0160208091040260200160405190810160405280929190818152602001828054610804906116b4565b80156108515780601f1061082657610100808354040283529160200191610851565b820191906000526020600020905b81548152906001019060200180831161083457829003601f168201915b5050505050815260200160038201805461086a906116b4565b80601f0160208091040260200160405190810160405280929190818152602001828054610896906116b4565b80156108e35780601f106108b8576101008083540402835291602001916108e3565b820191906000526020600020905b8154815290600101906020018083116108c657829003601f168201915b505050505081526020016004820154815260200160058201548152602001600682018054610910906116b4565b80601f016020809104026020016040519081016040528092919081815260200182805461093c906116b4565b80156109895780601f1061095e57610100808354040283529160200191610989565b820191906000526020600020905b81548152906001019060200180831161096c57829003601f168201915b505050918352505060078201546001600160a01b031660208201526008820154604082015260099091015460ff16151560609091015283518490849081106109d3576109d361183c565b60200260200101819052505080806109ea90611823565b9150506106f0565b50919050565b6001600160a01b03811660009081526004602052604090205460609060ff168181610a57576040805160008082526020820190925290610a4e565b610a3b611124565b815260200190600190039081610a335790505b50949350505050565b6001600160a01b0384166000908152600360205260409020805467ffffffffffffffff811115610a8957610a8961138d565b604051908082528060200260200182016040528015610ac257816020015b610aaf611124565b815260200190600190039081610aa75790505b5091506000805b8254811015610dcc576000838281548110610ae657610ae661183c565b90600052602060002090600a02019050806040518061014001604052908160008201548152602001600182018054610b1d906116b4565b80601f0160208091040260200160405190810160405280929190818152602001828054610b49906116b4565b8015610b965780601f10610b6b57610100808354040283529160200191610b96565b820191906000526020600020905b815481529060010190602001808311610b7957829003601f168201915b50505050508152602001600282018054610baf906116b4565b80601f0160208091040260200160405190810160405280929190818152602001828054610bdb906116b4565b8015610c285780601f10610bfd57610100808354040283529160200191610c28565b820191906000526020600020905b815481529060010190602001808311610c0b57829003601f168201915b50505050508152602001600382018054610c41906116b4565b80601f0160208091040260200160405190810160405280929190818152602001828054610c6d906116b4565b8015610cba5780601f10610c8f57610100808354040283529160200191610cba565b820191906000526020600020905b815481529060010190602001808311610c9d57829003601f168201915b505050505081526020016004820154815260200160058201548152602001600682018054610ce7906116b4565b80601f0160208091040260200160405190810160405280929190818152602001828054610d13906116b4565b8015610d605780601f10610d3557610100808354040283529160200191610d60565b820191906000526020600020905b815481529060010190602001808311610d4357829003601f168201915b505050918352505060078201546001600160a01b031660208201526008820154604082015260099091015460ff1615156060909101528551869084908110610daa57610daa61183c565b6020026020010181905250819250508080610dc490611823565b915050610ac9565b509195945050505050565b610ddf611124565b6001610deb8184611852565b81548110610dfb57610dfb61183c565b90600052602060002090600a02016040518061014001604052908160008201548152602001600182018054610e2f906116b4565b80601f0160208091040260200160405190810160405280929190818152602001828054610e5b906116b4565b8015610ea85780601f10610e7d57610100808354040283529160200191610ea8565b820191906000526020600020905b815481529060010190602001808311610e8b57829003601f168201915b50505050508152602001600282018054610ec1906116b4565b80601f0160208091040260200160405190810160405280929190818152602001828054610eed906116b4565b8015610f3a5780601f10610f0f57610100808354040283529160200191610f3a565b820191906000526020600020905b815481529060010190602001808311610f1d57829003601f168201915b50505050508152602001600382018054610f53906116b4565b80601f0160208091040260200160405190810160405280929190818152602001828054610f7f906116b4565b8015610fcc5780601f10610fa157610100808354040283529160200191610fcc565b820191906000526020600020905b815481529060010190602001808311610faf57829003601f168201915b505050505081526020016004820154815260200160058201548152602001600682018054610ff9906116b4565b80601f0160208091040260200160405190810160405280929190818152602001828054611025906116b4565b80156110725780601f1061104757610100808354040283529160200191611072565b820191906000526020600020905b81548152906001019060200180831161105557829003601f168201915b505050918352505060078201546001600160a01b031660208201526008820154604082015260099091015460ff16151560609091015292915050565b6110f382826040516024016110c492919061186b565b60408051601f198184030181529190526020810180516001600160e01b031663c3b5563560e01b1790526110f7565b5050565b61110081611103565b50565b60006a636f6e736f6c652e6c6f679050600080835160208501845afa505050565b6040518061014001604052806000815260200160608152602001606081526020016060815260200160008152602001600081526020016060815260200160006001600160a01b03168152602001600081526020016000151581525090565b82805482825590600052602060002090600a02810192821561127a57600052602060002091600a0282015b8281111561127a578254825582826001808201906111cd9084018261188f565b506002818101906111e09084018261188f565b506003818101906111f39084018261188f565b5060048201548160040155600582015481600501556006820181600601908161121c919061188f565b5060078281015490820180546001600160a01b0319166001600160a01b03909216919091179055600880830154908201556009918201549101805460ff909216151560ff19909216919091179055600a9283019291909101906111ad565b506112869291506112c4565b5090565b508054611296906116b4565b6000825580601f106112a6575050565b601f0160209004906000526020600020908101906111009190611348565b808211156112865760008082556112de600183018261128a565b6112ec60028301600061128a565b6112fa60038301600061128a565b6004820160009055600582016000905560068201600061131a919061128a565b506007810180546001600160a01b03191690556000600882015560098101805460ff19169055600a016112c4565b5b808211156112865760008155600101611349565b60006020828403121561136f57600080fd5b81356001600160a01b038116811461138657600080fd5b9392505050565b634e487b7160e01b600052604160045260246000fd5b600082601f8301126113b457600080fd5b813567ffffffffffffffff808211156113cf576113cf61138d565b604051601f8301601f19908116603f011681019082821181831017156113f7576113f761138d565b8160405283815286602085880101111561141057600080fd5b836020870160208301376000602085830101528094505050505092915050565b8035801515811461144057600080fd5b919050565b600080600080600080600080610100898b03121561146257600080fd5b883567ffffffffffffffff8082111561147a57600080fd5b6114868c838d016113a3565b995060208b013591508082111561149c57600080fd5b6114a88c838d016113a3565b985060408b01359150808211156114be57600080fd5b6114ca8c838d016113a3565b975060608b0135965060808b0135955060a08b01359150808211156114ee57600080fd5b506114fb8b828c016113a3565b93505060c0890135915061151160e08a01611430565b90509295985092959890939650565b6000815180845260005b818110156115465760208185018101518683018201520161152a565b506000602082860101526020601f19601f83011685010191505092915050565b600061014082518452602083015181602086015261158682860182611520565b915050604083015184820360408601526115a08282611520565b915050606083015184820360608601526115ba8282611520565b9150506080830151608085015260a083015160a085015260c083015184820360c08601526115e88282611520565b91505060e083015161160560e08601826001600160a01b03169052565b50610100838101519085015261012092830151151592909301919091525090565b6000602080830181845280855180835260408601915060408160051b870101925083870160005b8281101561167b57603f19888603018452611669858351611566565b9450928501929085019060010161164d565b5092979650505050505050565b60006020828403121561169a57600080fd5b5035919050565b6020815260006113866020830184611566565b600181811c908216806116c857607f821691505b6020821081036109f257634e487b7160e01b600052602260045260246000fd5b601f82111561173257600081815260208120601f850160051c8101602086101561170f5750805b601f850160051c820191505b8181101561172e5782815560010161171b565b5050505b505050565b815167ffffffffffffffff8111156117515761175161138d565b6117658161175f84546116b4565b846116e8565b602080601f83116001811461179a57600084156117825750858301515b600019600386901b1c1916600185901b17855561172e565b600085815260208120601f198616915b828110156117c9578886015182559484019460019091019084016117aa565b50858210156117e75787850151600019600388901b60f8161c191681555b5050505050600190811b01905550565b634e487b7160e01b600052603160045260246000fd5b634e487b7160e01b600052601160045260246000fd5b6000600182016118355761183561180d565b5060010190565b634e487b7160e01b600052603260045260246000fd5b818103818111156118655761186561180d565b92915050565b60408152600061187e6040830185611520565b905082151560208301529392505050565b81810361189a575050565b6118a482546116b4565b67ffffffffffffffff8111156118bc576118bc61138d565b6118ca8161175f84546116b4565b6000601f8211600181146118fe57600083156118e65750848201545b600019600385901b1c1916600184901b178455611963565b600085815260209020601f19841690600086815260209020845b838110156119385782860154825560019586019590910190602001611918565b50858310156119565781850154600019600388901b60f8161c191681555b50505060018360011b0184555b505050505056fea26469706673582212205fd98a5eda0c7f359a6db302cd1127296e98b0fecd92001175721ca72baab17664736f6c63430008130033",
  "linkReferences": {},
  "deployedLinkReferences": {}
}