{
  "_format": "hh-sol-artifact-1",
  "contractName": "PlanSubscription",
  "sourceName": "contracts/PlanSubscription.sol",
  "abi": [
    {
      "inputs": [
        {
          "internalType": "address payable",
          "name": "planContract",
          "type": "address"
        }
      ],
      "stateMutability": "nonpayable",
      "type": "constructor"
    },
    {
      "anonymous": false,
      "inputs": [
        {
          "indexed": true,
          "internalType": "address",
          "name": "owner",
          "type": "address"
        },
        {
          "indexed": true,
          "internalType": "address",
          "name": "approved",
          "type": "address"
        },
        {
          "indexed": true,
          "internalType": "uint256",
          "name": "tokenId",
          "type": "uint256"
        }
      ],
      "name": "Approval",
      "type": "event"
    },
    {
      "anonymous": false,
      "inputs": [
        {
          "indexed": true,
          "internalType": "address",
          "name": "owner",
          "type": "address"
        },
        {
          "indexed": true,
          "internalType": "address",
          "name": "operator",
          "type": "address"
        },
        {
          "indexed": false,
          "internalType": "bool",
          "name": "approved",
          "type": "bool"
        }
      ],
      "name": "ApprovalForAll",
      "type": "event"
    },
    {
      "anonymous": false,
      "inputs": [
        {
          "indexed": false,
          "internalType": "uint256",
          "name": "_fromTokenId",
          "type": "uint256"
        },
        {
          "indexed": false,
          "internalType": "uint256",
          "name": "_toTokenId",
          "type": "uint256"
        }
      ],
      "name": "BatchMetadataUpdate",
      "type": "event"
    },
    {
      "anonymous": false,
      "inputs": [
        {
          "indexed": false,
          "internalType": "uint256",
          "name": "_tokenId",
          "type": "uint256"
        }
      ],
      "name": "MetadataUpdate",
      "type": "event"
    },
    {
      "anonymous": false,
      "inputs": [
        {
          "indexed": true,
          "internalType": "address",
          "name": "from",
          "type": "address"
        },
        {
          "indexed": true,
          "internalType": "address",
          "name": "to",
          "type": "address"
        },
        {
          "indexed": true,
          "internalType": "uint256",
          "name": "tokenId",
          "type": "uint256"
        }
      ],
      "name": "Transfer",
      "type": "event"
    },
    {
      "inputs": [],
      "name": "_plan",
      "outputs": [
        {
          "internalType": "contract Plan",
          "name": "",
          "type": "address"
        }
      ],
      "stateMutability": "view",
      "type": "function"
    },
    {
      "inputs": [
        {
          "internalType": "address",
          "name": "to",
          "type": "address"
        },
        {
          "internalType": "uint256",
          "name": "tokenId",
          "type": "uint256"
        }
      ],
      "name": "approve",
      "outputs": [],
      "stateMutability": "nonpayable",
      "type": "function"
    },
    {
      "inputs": [
        {
          "internalType": "address",
          "name": "owner",
          "type": "address"
        }
      ],
      "name": "balanceOf",
      "outputs": [
        {
          "internalType": "uint256",
          "name": "",
          "type": "uint256"
        }
      ],
      "stateMutability": "view",
      "type": "function"
    },
    {
      "inputs": [
        {
          "internalType": "uint256",
          "name": "planNum",
          "type": "uint256"
        },
        {
          "internalType": "string",
          "name": "name",
          "type": "string"
        },
        {
          "internalType": "string",
          "name": "image",
          "type": "string"
        },
        {
          "internalType": "string",
          "name": "ipfsHash",
          "type": "string"
        },
        {
          "internalType": "address",
          "name": "subOwner",
          "type": "address"
        },
        {
          "internalType": "uint256",
          "name": "createdAt",
          "type": "uint256"
        },
        {
          "internalType": "uint256",
          "name": "invalidAfter",
          "type": "uint256"
        }
      ],
      "name": "createSubscription",
      "outputs": [],
      "stateMutability": "payable",
      "type": "function"
    },
    {
      "inputs": [
        {
          "internalType": "uint256",
          "name": "tokenId",
          "type": "uint256"
        }
      ],
      "name": "getApproved",
      "outputs": [
        {
          "internalType": "address",
          "name": "",
          "type": "address"
        }
      ],
      "stateMutability": "view",
      "type": "function"
    },
    {
      "inputs": [
        {
          "internalType": "address",
          "name": "owner",
          "type": "address"
        },
        {
          "internalType": "address",
          "name": "operator",
          "type": "address"
        }
      ],
      "name": "isApprovedForAll",
      "outputs": [
        {
          "internalType": "bool",
          "name": "",
          "type": "bool"
        }
      ],
      "stateMutability": "view",
      "type": "function"
    },
    {
      "inputs": [],
      "name": "name",
      "outputs": [
        {
          "internalType": "string",
          "name": "",
          "type": "string"
        }
      ],
      "stateMutability": "view",
      "type": "function"
    },
    {
      "inputs": [
        {
          "internalType": "uint256",
          "name": "tokenId",
          "type": "uint256"
        }
      ],
      "name": "ownerOf",
      "outputs": [
        {
          "internalType": "address",
          "name": "",
          "type": "address"
        }
      ],
      "stateMutability": "view",
      "type": "function"
    },
    {
      "inputs": [
        {
          "internalType": "address",
          "name": "from",
          "type": "address"
        },
        {
          "internalType": "address",
          "name": "to",
          "type": "address"
        },
        {
          "internalType": "uint256",
          "name": "tokenId",
          "type": "uint256"
        }
      ],
      "name": "safeTransferFrom",
      "outputs": [],
      "stateMutability": "nonpayable",
      "type": "function"
    },
    {
      "inputs": [
        {
          "internalType": "address",
          "name": "from",
          "type": "address"
        },
        {
          "internalType": "address",
          "name": "to",
          "type": "address"
        },
        {
          "internalType": "uint256",
          "name": "tokenId",
          "type": "uint256"
        },
        {
          "internalType": "bytes",
          "name": "data",
          "type": "bytes"
        }
      ],
      "name": "safeTransferFrom",
      "outputs": [],
      "stateMutability": "nonpayable",
      "type": "function"
    },
    {
      "inputs": [
        {
          "internalType": "address",
          "name": "operator",
          "type": "address"
        },
        {
          "internalType": "bool",
          "name": "approved",
          "type": "bool"
        }
      ],
      "name": "setApprovalForAll",
      "outputs": [],
      "stateMutability": "nonpayable",
      "type": "function"
    },
    {
      "inputs": [
        {
          "internalType": "bytes4",
          "name": "interfaceId",
          "type": "bytes4"
        }
      ],
      "name": "supportsInterface",
      "outputs": [
        {
          "internalType": "bool",
          "name": "",
          "type": "bool"
        }
      ],
      "stateMutability": "view",
      "type": "function"
    },
    {
      "inputs": [],
      "name": "symbol",
      "outputs": [
        {
          "internalType": "string",
          "name": "",
          "type": "string"
        }
      ],
      "stateMutability": "view",
      "type": "function"
    },
    {
      "inputs": [
        {
          "internalType": "uint256",
          "name": "tokenId",
          "type": "uint256"
        }
      ],
      "name": "tokenURI",
      "outputs": [
        {
          "internalType": "string",
          "name": "",
          "type": "string"
        }
      ],
      "stateMutability": "view",
      "type": "function"
    },
    {
      "inputs": [
        {
          "internalType": "address",
          "name": "from",
          "type": "address"
        },
        {
          "internalType": "address",
          "name": "to",
          "type": "address"
        },
        {
          "internalType": "uint256",
          "name": "tokenId",
          "type": "uint256"
        }
      ],
      "name": "transferFrom",
      "outputs": [],
      "stateMutability": "nonpayable",
      "type": "function"
    }
  ],
  "bytecode": "0x608060405260016008553480156200001657600080fd5b5060405162001f6738038062001f678339810160408190526200003991620000c7565b6040518060400160405280600f81526020016e14dd589cd8dc9a5c1d1a5bdb939195608a1b8152506040518060400160405280600381526020016214d19560ea1b81525081600090816200008e91906200019e565b5060016200009d82826200019e565b5050600780546001600160a01b0319166001600160a01b039390931692909217909155506200026a565b600060208284031215620000da57600080fd5b81516001600160a01b0381168114620000f257600080fd5b9392505050565b634e487b7160e01b600052604160045260246000fd5b600181811c908216806200012457607f821691505b6020821081036200014557634e487b7160e01b600052602260045260246000fd5b50919050565b601f8211156200019957600081815260208120601f850160051c81016020861015620001745750805b601f850160051c820191505b81811015620001955782815560010162000180565b5050505b505050565b81516001600160401b03811115620001ba57620001ba620000f9565b620001d281620001cb84546200010f565b846200014b565b602080601f8311600181146200020a5760008415620001f15750858301515b600019600386901b1c1916600185901b17855562000195565b600085815260208120601f198616915b828110156200023b578886015182559484019460019091019084016200021a565b50858210156200025a5787850151600019600388901b60f8161c191681555b5050505050600190811b01905550565b611ced806200027a6000396000f3fe6080604052600436106100e85760003560e01c80636352211e1161008a578063a22cb46511610059578063a22cb46514610274578063b88d4fde14610294578063c87b56dd146102b4578063e985e9c5146102d457600080fd5b80636352211e146101fe57806370a082311461021e578063795af6251461024c57806395d89b411461025f57600080fd5b8063092c388d116100c6578063092c388d1461017c578063095ea7b31461019c57806323b872dd146101be57806342842e0e146101de57600080fd5b806301ffc9a7146100ed57806306fdde0314610122578063081812fc14610144575b600080fd5b3480156100f957600080fd5b5061010d6101083660046113ea565b61031d565b60405190151581526020015b60405180910390f35b34801561012e57600080fd5b50610137610348565b6040516101199190611457565b34801561015057600080fd5b5061016461015f36600461146a565b6103da565b6040516001600160a01b039091168152602001610119565b34801561018857600080fd5b50600754610164906001600160a01b031681565b3480156101a857600080fd5b506101bc6101b7366004611498565b610401565b005b3480156101ca57600080fd5b506101bc6101d93660046114c4565b61051b565b3480156101ea57600080fd5b506101bc6101f93660046114c4565b61054c565b34801561020a57600080fd5b5061016461021936600461146a565b610567565b34801561022a57600080fd5b5061023e610239366004611505565b6105c7565b604051908152602001610119565b6101bc61025a366004611619565b61064d565b34801561026b57600080fd5b506101376108c2565b34801561028057600080fd5b506101bc61028f3660046116e0565b6108d1565b3480156102a057600080fd5b506101bc6102af366004611719565b6108e0565b3480156102c057600080fd5b506101376102cf36600461146a565b610918565b3480156102e057600080fd5b5061010d6102ef366004611799565b6001600160a01b03918216600090815260056020908152604080832093909416825291909152205460ff1690565b60006001600160e01b03198216632483248360e11b1480610342575061034282610a28565b92915050565b606060008054610357906117c7565b80601f0160208091040260200160405190810160405280929190818152602001828054610383906117c7565b80156103d05780601f106103a5576101008083540402835291602001916103d0565b820191906000526020600020905b8154815290600101906020018083116103b357829003601f168201915b5050505050905090565b60006103e582610a78565b506000908152600460205260409020546001600160a01b031690565b600061040c82610567565b9050806001600160a01b0316836001600160a01b03160361047e5760405162461bcd60e51b815260206004820152602160248201527f4552433732313a20617070726f76616c20746f2063757272656e74206f776e656044820152603960f91b60648201526084015b60405180910390fd5b336001600160a01b038216148061049a575061049a81336102ef565b61050c5760405162461bcd60e51b815260206004820152603d60248201527f4552433732313a20617070726f76652063616c6c6572206973206e6f7420746f60448201527f6b656e206f776e6572206f7220617070726f76656420666f7220616c6c0000006064820152608401610475565b6105168383610ada565b505050565b6105253382610b48565b6105415760405162461bcd60e51b815260040161047590611801565b610516838383610bc6565b610516838383604051806020016040528060008152506108e0565b6000818152600260205260408120546001600160a01b0316806103425760405162461bcd60e51b8152602060048201526018602482015277115490cdcc8c4e881a5b9d985b1a59081d1bdad95b88125160421b6044820152606401610475565b60006001600160a01b0382166106315760405162461bcd60e51b815260206004820152602960248201527f4552433732313a2061646472657373207a65726f206973206e6f7420612076616044820152683634b21037bbb732b960b91b6064820152608401610475565b506001600160a01b031660009081526003602052604090205490565b6001600160a01b03831661065f573392505b6007546040516368df771160e11b8152600481018990526000916001600160a01b03169063d1beee2290602401600060405180830381865afa1580156106a9573d6000803e3d6000fd5b505050506040513d6000823e601f3d908101601f191682016040526106d191908101906118ae565b9050610700604051806080016040528060438152602001611c75604391396020830151835160e0850151610d2a565b6008546040805160e08082018352838252602082018c90528183018b9052606082018a90526080820189905260a0820187905260c0820186905284015191519091906000906001600160a01b038316903480156108fc029184818181858888f193505050509050806107ab5760405162461bcd60e51b81526020600482015260146024820152732330b4b632b2103a379039b2b7321022ba3432b960611b6044820152606401610475565b60098054600181018255600091909152835160079091027f6e1540171b6c0c960b71a7020d9f60077f6af931a8bbf590da0223dacf75c7af810191825560208501517f6e1540171b6c0c960b71a7020d9f60077f6af931a8bbf590da0223dacf75c7b082015560408501518592917f6e1540171b6c0c960b71a7020d9f60077f6af931a8bbf590da0223dacf75c7b101906108469082611a26565b506060820151600382019061085b9082611a26565b50608082015160048201906108709082611a26565b5060a0820151816005015560c08201518160060155505061089388600854610d73565b61089f6008548a610efe565b600880549060006108af83611ae6565b9190505550505050505050505050505050565b606060018054610357906117c7565b6108dc338383610fc9565b5050565b6108ea3383610b48565b6109065760405162461bcd60e51b815260040161047590611801565b61091284848484611097565b50505050565b606061092382610a78565b6000828152600660205260408120805461093c906117c7565b80601f0160208091040260200160405190810160405280929190818152602001828054610968906117c7565b80156109b55780601f1061098a576101008083540402835291602001916109b5565b820191906000526020600020905b81548152906001019060200180831161099857829003601f168201915b5050505050905060006109d360408051602081019091526000815290565b905080516000036109e5575092915050565b815115610a175780826040516020016109ff929190611b0d565b60405160208183030381529060405292505050919050565b610a20846110ca565b949350505050565b60006001600160e01b031982166380ac58cd60e01b1480610a5957506001600160e01b03198216635b5e139f60e01b145b8061034257506301ffc9a760e01b6001600160e01b0319831614610342565b6000818152600260205260409020546001600160a01b0316610ad75760405162461bcd60e51b8152602060048201526018602482015277115490cdcc8c4e881a5b9d985b1a59081d1bdad95b88125160421b6044820152606401610475565b50565b600081815260046020526040902080546001600160a01b0319166001600160a01b0384169081179091558190610b0f82610567565b6001600160a01b03167f8c5be1e5ebec7d5bd14f71427d1e84f3dd0314c0f7b2291e5b200ac8c7c3b92560405160405180910390a45050565b600080610b5483610567565b9050806001600160a01b0316846001600160a01b03161480610b9b57506001600160a01b0380821660009081526005602090815260408083209388168352929052205460ff165b80610a205750836001600160a01b0316610bb4846103da565b6001600160a01b031614949350505050565b826001600160a01b0316610bd982610567565b6001600160a01b031614610bff5760405162461bcd60e51b815260040161047590611b3c565b6001600160a01b038216610c615760405162461bcd60e51b8152602060048201526024808201527f4552433732313a207472616e7366657220746f20746865207a65726f206164646044820152637265737360e01b6064820152608401610475565b826001600160a01b0316610c7482610567565b6001600160a01b031614610c9a5760405162461bcd60e51b815260040161047590611b3c565b600081815260046020908152604080832080546001600160a01b03199081169091556001600160a01b0387811680865260038552838620805460001901905590871680865283862080546001019055868652600290945282852080549092168417909155905184937fddf252ad1be2c89b69c2b068fc378daa952ba7f163c4a11628f55a4df523b3ef91a4505050565b61091284848484604051602401610d449493929190611b81565b60408051601f198184030181529190526020810180516001600160e01b0316630811fbd960e11b17905261113e565b6001600160a01b038216610dc95760405162461bcd60e51b815260206004820181905260248201527f4552433732313a206d696e7420746f20746865207a65726f20616464726573736044820152606401610475565b6000818152600260205260409020546001600160a01b031615610e2e5760405162461bcd60e51b815260206004820152601c60248201527f4552433732313a20746f6b656e20616c7265616479206d696e746564000000006044820152606401610475565b6000818152600260205260409020546001600160a01b031615610e935760405162461bcd60e51b815260206004820152601c60248201527f4552433732313a20746f6b656e20616c7265616479206d696e746564000000006044820152606401610475565b6001600160a01b038216600081815260036020908152604080832080546001019055848352600290915280822080546001600160a01b0319168417905551839291907fddf252ad1be2c89b69c2b068fc378daa952ba7f163c4a11628f55a4df523b3ef908290a45050565b6000828152600260205260409020546001600160a01b0316610f795760405162461bcd60e51b815260206004820152602e60248201527f45524337323155524953746f726167653a2055524920736574206f66206e6f6e60448201526d32bc34b9ba32b73a103a37b5b2b760911b6064820152608401610475565b6000828152600660205260409020610f918282611a26565b506040518281527ff8e1a15aba9398e019f0b49df1a4fde98ee17ae345cb5f6b5e2c27f5033e8ce79060200160405180910390a15050565b816001600160a01b0316836001600160a01b03160361102a5760405162461bcd60e51b815260206004820152601960248201527f4552433732313a20617070726f766520746f2063616c6c6572000000000000006044820152606401610475565b6001600160a01b03838116600081815260056020908152604080832094871680845294825291829020805460ff191686151590811790915591519182527f17307eab39ab6107e8899845ad3d59bd9653f200f220920489ca2b5937696c31910160405180910390a3505050565b6110a2848484610bc6565b6110ae84848484611147565b6109125760405162461bcd60e51b815260040161047590611bc8565b60606110d582610a78565b60006110ec60408051602081019091526000815290565b9050600081511161110c5760405180602001604052806000815250611137565b8061111684611248565b604051602001611127929190611b0d565b6040516020818303038152906040525b9392505050565b610ad7816112db565b60006001600160a01b0384163b1561123d57604051630a85bd0160e11b81526001600160a01b0385169063150b7a029061118b903390899088908890600401611c1a565b6020604051808303816000875af19250505080156111c6575060408051601f3d908101601f191682019092526111c391810190611c57565b60015b611223573d8080156111f4576040519150601f19603f3d011682016040523d82523d6000602084013e6111f9565b606091505b50805160000361121b5760405162461bcd60e51b815260040161047590611bc8565b805181602001fd5b6001600160e01b031916630a85bd0160e11b149050610a20565b506001949350505050565b60606000611255836112fc565b600101905060008167ffffffffffffffff81111561127557611275611522565b6040519080825280601f01601f19166020018201604052801561129f576020820181803683370190505b5090508181016020015b600019016f181899199a1a9b1b9c1cb0b131b232b360811b600a86061a8153600a85049450846112a957509392505050565b60006a636f6e736f6c652e6c6f679050600080835160208501845afa505050565b60008072184f03e93ff9f4daa797ed6e38ed64bf6a1f0160401b831061133b5772184f03e93ff9f4daa797ed6e38ed64bf6a1f0160401b830492506040015b6d04ee2d6d415b85acef81000000008310611367576d04ee2d6d415b85acef8100000000830492506020015b662386f26fc10000831061138557662386f26fc10000830492506010015b6305f5e100831061139d576305f5e100830492506008015b61271083106113b157612710830492506004015b606483106113c3576064830492506002015b600a83106103425760010192915050565b6001600160e01b031981168114610ad757600080fd5b6000602082840312156113fc57600080fd5b8135611137816113d4565b60005b8381101561142257818101518382015260200161140a565b50506000910152565b60008151808452611443816020860160208601611407565b601f01601f19169290920160200192915050565b602081526000611137602083018461142b565b60006020828403121561147c57600080fd5b5035919050565b6001600160a01b0381168114610ad757600080fd5b600080604083850312156114ab57600080fd5b82356114b681611483565b946020939093013593505050565b6000806000606084860312156114d957600080fd5b83356114e481611483565b925060208401356114f481611483565b929592945050506040919091013590565b60006020828403121561151757600080fd5b813561113781611483565b634e487b7160e01b600052604160045260246000fd5b604051610140810167ffffffffffffffff8111828210171561155c5761155c611522565b60405290565b604051601f8201601f1916810167ffffffffffffffff8111828210171561158b5761158b611522565b604052919050565b600067ffffffffffffffff8211156115ad576115ad611522565b50601f01601f191660200190565b60006115ce6115c984611593565b611562565b90508281528383830111156115e257600080fd5b828260208301376000602084830101529392505050565b600082601f83011261160a57600080fd5b611137838335602085016115bb565b600080600080600080600060e0888a03121561163457600080fd5b87359650602088013567ffffffffffffffff8082111561165357600080fd5b61165f8b838c016115f9565b975060408a013591508082111561167557600080fd5b6116818b838c016115f9565b965060608a013591508082111561169757600080fd5b506116a48a828b016115f9565b94505060808801356116b581611483565b9699959850939692959460a0840135945060c09093013592915050565b8015158114610ad757600080fd5b600080604083850312156116f357600080fd5b82356116fe81611483565b9150602083013561170e816116d2565b809150509250929050565b6000806000806080858703121561172f57600080fd5b843561173a81611483565b9350602085013561174a81611483565b925060408501359150606085013567ffffffffffffffff81111561176d57600080fd5b8501601f8101871361177e57600080fd5b61178d878235602084016115bb565b91505092959194509250565b600080604083850312156117ac57600080fd5b82356117b781611483565b9150602083013561170e81611483565b600181811c908216806117db57607f821691505b6020821081036117fb57634e487b7160e01b600052602260045260246000fd5b50919050565b6020808252602d908201527f4552433732313a2063616c6c6572206973206e6f7420746f6b656e206f776e6560408201526c1c881bdc88185c1c1c9bdd9959609a1b606082015260800190565b600082601f83011261185f57600080fd5b815161186d6115c982611593565b81815284602083860101111561188257600080fd5b610a20826020830160208701611407565b805161189e81611483565b919050565b805161189e816116d2565b6000602082840312156118c057600080fd5b815167ffffffffffffffff808211156118d857600080fd5b9083019061014082860312156118ed57600080fd5b6118f5611538565b8251815260208301518281111561190b57600080fd5b6119178782860161184e565b60208301525060408301518281111561192f57600080fd5b61193b8782860161184e565b60408301525060608301518281111561195357600080fd5b61195f8782860161184e565b6060830152506080830151608082015260a083015160a082015260c08301518281111561198b57600080fd5b6119978782860161184e565b60c0830152506119a960e08401611893565b60e0820152610100838101519082015261012091506119c98284016118a3565b91810191909152949350505050565b601f82111561051657600081815260208120601f850160051c810160208610156119ff5750805b601f850160051c820191505b81811015611a1e57828155600101611a0b565b505050505050565b815167ffffffffffffffff811115611a4057611a40611522565b611a5481611a4e84546117c7565b846119d8565b602080601f831160018114611a895760008415611a715750858301515b600019600386901b1c1916600185901b178555611a1e565b600085815260208120601f198616915b82811015611ab857888601518255948401946001909101908401611a99565b5085821015611ad65787850151600019600388901b60f8161c191681555b5050505050600190811b01905550565b600060018201611b0657634e487b7160e01b600052601160045260246000fd5b5060010190565b60008351611b1f818460208801611407565b835190830190611b33818360208801611407565b01949350505050565b60208082526025908201527f4552433732313a207472616e736665722066726f6d20696e636f72726563742060408201526437bbb732b960d91b606082015260800190565b608081526000611b94608083018761142b565b8281036020840152611ba6818761142b565b604084019590955250506001600160a01b039190911660609091015292915050565b60208082526032908201527f4552433732313a207472616e7366657220746f206e6f6e20455243373231526560408201527131b2b4bb32b91034b6b83632b6b2b73a32b960711b606082015260800190565b6001600160a01b0385811682528416602082015260408101839052608060608201819052600090611c4d9083018461142b565b9695505050505050565b600060208284031215611c6957600080fd5b8151611137816113d456fe4372656174696e6720537562736372697074696f6e204e4654207769746820706c616e3a2025732c20706c616e4e756d3a2025732c20706c616e4f776e65723a202573a2646970667358221220390224d52565906b377aeff6150cb1ddae2da0190e3549d1e4768525174648ca64736f6c63430008130033",
  "linkReferences": {},
  "deployedLinkReferences": {}
}